:020000040000FA
:10000000E854002001020000150200001702000061
:10001000190200001902000019020000000000008F
:1000200000000000000000000000000019020000B5
:10003000190200000000000019020000190200006F
:100040001902000019020000190200001902000044
:100050001902000019020000190200001902000034
:100060001902000019020000190200001902000024
:100070001902000019020000190200001902000014
:100080001902000019020000190200001902000004
:1000900019020000190200001902000019020000F4
:1000A00019020000190200001902000019020000E4
:1000B00019020000190200001902000019020000D4
:1000C00019020000190200001902000019020000C4
:1000D00019020000190200001902000019020000B4
:1000E00019020000190200001902000019020000A4
:1000F0001902000019020000190200001902000094
:100100001902000019020000190200001902000083
:100110001902000019020000190200001902000073
:100120001902000019020000190200001902000063
:100130001902000019020000190200001902000053
:100140001902000019020000190200001902000043
:100150000000000000000000190200001902000069
:10016000190200001902000000000000190200003E
:100170001902000019020000190200001902000013
:100180001902000019020000190200001902000003
:1001900019020000190200001902000019020000F3
:1001A00019020000190200001902000019020000E3
:1001B00019020000190200001902000019020000D3
:1001C00019020000190200001902000019020000C3
:1001D00019020000190200001902000019020000B3
:1001E00019020000190200001902000019020000A3
:1001F0001902000019020000190200001902000093
:100200004EF68850CEF20000016841F470010160A2
:1002100000F004B8FEE7FEE7FEE7000000F002F899
:1002200000F06FF80AA090E8000C82448344AAF121
:100230000107DA4501D100F064F8AFF2090EBAE81F
:100240000F0013F0010F18BFFB1A43F0010318470A
:1002500080B90100A0B901000A444FF0000C10F869
:10026000013B13F0070408BF10F8014B1D1108BF34
:1002700010F8015B641E05D010F8016B641E01F8D4
:10028000016BF9D113F0080F1EBF10F8014BAD1C24
:100290000C1B09D16D1E58BF01F801CBFAD505E042
:1002A00014F8016B01F8016B6D1EF9D59142D6D39C
:1002B000704700000023002400250026103A28BFC4
:1002C00078C1FBD8520728BF30C148BF0B607047C8
:1002D000662919F02E82002070471FB519F01FFA09
:1002E00016F022FB04000020002118F039FC401C0D
:1002F00060600020002118F01DFCE0601FBD10B5FB
:1003000010BD16F057FC1146FFF7E7FF00F0FFF8AD
:1003100016F083FC03B4FFF7F2FF03BC16F084FC75
:10032000EFF3108072B67047EFF310807047EFF371
:10033000108062B6704730BF704780F311887047F5
:10034000EFF31180704700000138FDD170470000C5
:1003500008B515F0E7FC00200346009015A216A191
:1003600016A00CF0EAFA80B115A00AF085F91DA1DB
:100370001EA003F02EFC02F0FCFE00F061F902F07A
:1003800040FBBDE8084002F065BF1AA0EDE71CB5D0
:1003900014210F204FF400630022CDE90001AFF2D9
:1003A0004F011BA00BF0A4FA08B10BF03FFA00209C
:1003B0001CBD0000656C6D002F00000073643000F0
:1003C00046696C652053797374656D20696E697434
:1003D00069616C7A6174696F6E206661696C6564CD
:1003E000210A000073736930300000006E726632BB
:1003F0003400000046696C652053797374656D2084
:10040000696E697469616C697A6564210A0000002B
:10041000696E69740000000010B509F04BFE07F02A
:10042000A5FFBDE8104009F050BE10B54FF0807434
:10043000A06C806880471949032006F096FF184990
:100440000E2006F092FFAFF22F010F2006F08DFF75
:10045000A06F00688047A06F00698047606CC16D25
:1004600010488847A06B8068804707F0CCFC4FF4A9
:100470007A71B0FBF1F0A16B49698847A06BC06845
:100480008047A06B4068804704F0A3FD06A00AF0F7
:100490003EF9A06C4068BDE810400047F5C300007D
:1004A0003FC30000400500C1756172743000000058
:1004B000012020B1002804D018A00AF0DDB81EA049
:1004C000FBE7704710B5FFF7B0FF0AF0F5F82049D9
:1004D00020480AF02AFAFFF7EBFF05F081FE03F04F
:1004E000D7F905F08CFD03F0FAFD03F07CFD05F073
:1004F00024F90AF02CFF0BF097FDFFF748FF0BF0F3
:10050000D3FD08F081F9BDE810400AF036BF10B500
:100510000BF0FEFEFFF7D6FF002010BD5379737479
:10052000656D206973204C6974746C652D456E642B
:1005300069616E210A00000053797374656D20694A
:1005400073204269672D456E6469616E210A00005F
:1005500000800020E8540020F8B53B4D0026686874
:10056000A8B90AF0A6FF07F0F4FE044608E06868A0
:10057000401C686000960098401C00906428FAD3E4
:1005800007F0E7FE001B0A28F1D30AF09DFF0024C4
:1005900007F0DFFE074606E0641C00960098401C4A
:1005A00000906428FAD307F0D4FEC01B0A28F3D3C6
:1005B000686884420DD2021B64214A43B2FBF0F109
:1005C000297000FB112164225143B1FBF0F06870E7
:1005D000F8BD6C602E706E70F8BDF8B50C46050065
:1005E0004FF000060BD18DF800604723174A18A181
:1005F0001CA00AF041F89DF80020002AFBD05CB94D
:100600008DF800604823114A1EA116A00AF034F8A4
:100610009DF80020002AFBD00B4801782970407813
:100620002070F8BD1CB500208DF800008DF8040086
:1006300001A96846FFF7D1FF9DF800001CBDF1E756
:10064000154808F08DB800000000002064970100F4
:100650006D616A6F7220213D2052545F4E554C4CA3
:1006600000000000282573292061737365727420CF
:100670006661696C65642061742025733A25642085
:100680000A0000006D696E6F7220213D2052545F98
:100690004E554C4C000000005905000010B59AB0B2
:1006A000182214A114A815F006FD002240F2011131
:1006B00016A00CF029FF040006D4182214A90CF08F
:1006C00084FF20460CF046FF002211460FA00CF0DC
:1006D0001BFF040006D4502269460CF057FF204649
:1006E0000CF038FF69460CA009F0C6FF1AB010BD27
:1006F000D4E7000052542D54687265616420507232
:100700006F6772616D6D657221200A002F746578C4
:10071000742E74787400000025730000FD4809B938
:1007200001228263C1637047FB4803F015BE024695
:10073000F8480B46C16BF94809F09EFFFEE710B57B
:10074000F44A936B13B9D36B002BFAD0D36B0BB174
:10075000FFF7EDFF0020906310BD2DE9F041ED4D56
:100760002DED028B82B0A87800287DD14FF08074E7
:10077000606C8169EA488847EA4807F076F8EA48F9
:1007800006F01BFCE94806F018FCE94E1021304643
:1007900006F024FB2021304606F013FBAFF2770170
:1007A000E44E304606F0ACFCE069C2683046904743
:1007B000606C006E8047FF21CDE900100B4654228B
:1007C0003146D54803F0D3FE304606F00FFD014612
:1007D000D9A009F051FFDE4CAFF2BF036822CE4929
:1007E0002046009404F068F9BF21DAA0FFF7A7FFC4
:1007F000042084F83600182084F83700112084F88B
:100800003800AFF2E706CDE9006404F136020323B5
:1008100090461A21204604F0A3F9C721CDA0FFF786
:100820008EFF002084F8360084F8370084F8380002
:10083000CDE90064032342461A21204604F06BF9F7
:10084000CF21C4A0FFF77BFF94F8383094F837200D
:1008500014F8361FC44809F00FFF012704F8367951
:100860003B464246192100E047E0CDE90064B84824
:1008700004F076F9D821B7A0FFF761FF84F836704D
:10088000CDE90064012342466B21B14804F068F9C8
:10089000DE21B0A0FFF753FF202068709FEDB38BDF
:1008A000B0EE480AF0EE680A17F0BAFB51EC100BF4
:1008B00018F078F9B0EE480AF0EE680A286417F0EC
:1008C0001BFC51EC100B18F06DF9B0EE480AF0EE7D
:1008D000680A686417F0A4FB51EC100B18F062F979
:1008E000B0EE480AF0EE680AA86417F005FC51EC77
:1008F000100B18F057F9E864AF7002B0BDEC028B32
:10090000BDE8F08110B5028840F2DB131E320A8088
:10091000428812FB03F2974B808803EB42024FF4AC
:100920007A7392FBF3F240F2574410FB04F0924CBE
:100930004A80204490FBF3F0888010BD2DE9F84FE9
:100940009146834A8A468346AFF22F21104604F02F
:1009500073F940F209117FA0FFF7F1FE6D4D7C485D
:1009600054352B1DAA1C294604F0CFF9AE1D331DAA
:10097000B21CA91D764804F086F905F112073B1D4B
:10098000BA1C3946724804F00AFA6248624AB41D39
:10099000407800900C3A9046B6F90000009905F0B6
:1009A000B3FC2080B6F9020008F10402009905F0BA
:1009B000ABFC6080B6F9040008F10802009905F06C
:1009C000A3FCA0805348B5F90010406BB0F90000BB
:1009D000081A00EE100AF8EEC00A9FED680A4D48AA
:1009E00060EE800ACBED000A406BB5F90210B0F959
:1009F0000220891A00EE901AF8EEE00A60EE800AF2
:100A0000CBED010AB5F90410B0F90400081A00EEA4
:100A1000900A2046F8EEE00A20EE800A8BED020AEA
:100A2000B0F9001000EE101AF8EEC00A9FED540A5B
:100A300060EE800ACAED000AB0F9021000EE901ACA
:100A4000F8EEE00A60EE800ACAED010AB0F904008F
:100A500000EE900AF8EEE00A20EE800A8AED020A23
:100A6000B7F9000000EE100AF8EEC00A9FED450A43
:100A700060EE800AC9ED000AB7F9020000EE900AA4
:100A8000F8EEE00A60EE800AC9ED010AB7F9040049
:100A900000EE900AF8EEE00A20EE800A89ED020AE4
:100AA000BDE8F88F2DE9FC4700261A4D3746B046C1
:100AB000344640F2351A543541F28839244AAFF2AF
:100AC000A331104604F0B8F8514622A0FFF737FED4
:100AD00010492B1DAA1C54311D4804F016F9B5F914
:100AE0000000B5F904100644B5F90200641C07447F
:100AF000A4B2884448464C45E0D396FBF0F297FBFD
:100B0000F0F198FBF9F094B28DB286B233462A46E2
:100B1000214639E008000020280B00205CB50100C8
:100B2000022000F0040800F0031004000314040085
:100B30000040024000200240693263206275732049
:100B400062757379207374617475733D25640A004E
:100B50004C0C00204D6963466C795C696D755F6172
:100B600070692E6300000000B0B5010000000000B5
:100B7000000000005A7AFEFFF049020000007A3DB2
:100B800000008039B00FA134F6A009F075FD05EB27
:100B90000440009041F2342000EB0640019008220E
:100BA0000021684605F055FBDDE90012F2A009F0CE
:100BB00063FDBDE8FC873EB50822002101A805F0D1
:100BC0002DFB062009F000FFF54C6063DDE9011202
:100BD000F4A009F051FD0198616B02140A8001989C
:100BE00003B24B800298001488800090F6A009F0B0
:100BF00043FD3EBD70472DE9F043DFF8A493FF4E5F
:100C0000078899F800500024234626F8157006F549
:100C1000C877B0F802C027F815C006F5487C808870
:100C20002CF815002246204636F91080444437F946
:100C3000108043443CF91080401CC0B24244C82894
:100C4000F2D3C82094FBF0F493FBF0F392FBF0F0A6
:100C50000C804B8088806D1CE8B289F80000C828A1
:100C600002D1002089F80000BDE8F08310EE100AE0
:100C700020F00040C0F1FF40C00F02D09FEDE00A1D
:100C8000704710EE100AB0F17E5F02DB9FEDDD0AC7
:100C9000704710EE100A10F1814F02D39FEDDA0A6F
:100CA000704716F099BD10EE100AF6EE000AD7490B
:100CB00060EE200AA1EB600000EE100A20EE801A20
:100CC000F7EE080A41EE400A20EE800A7047F0B5C0
:100CD000B34C15462DED108B81B094ED010A91EDCA
:100CE00000BA91ED018AD1ED028A90E8C20060EE6F
:100CF000000ACDED000A94ED021AD4ED030A60EE6D
:100D000001EA60EE20FA94ED040A21EE01EA60EEB9
:100D1000A0DA21EE00FA20EE80DA60EE00CA2BEEB7
:100D2000080A20EE280AB5EEC00AF1EE10FA7DD0CE
:100D3000084618F083FC9FEDB69B53EC192B18F076
:100D4000BDF99FEDB5AB53EC1A2B18F005F817F071
:100D500029FF0CEE100A304618F070FC53EC192BEA
:100D600018F0ACF953EC1A2B17F0F6FF17F01AFF36
:100D70000BEE900A384618F061FC53EC192B18F072
:100D80009DF953EC1A2B17F0E7FF17F00BFF2BEE32
:100D90000B0A09EE100A08EE080A08EEA80AFFF787
:100DA00082FFDDED000A2BEE001A28EE002A70EE1D
:100DB000CE0A68EE801A3FEE6F0AB0EE008A70EE3F
:100DC000ED0A60EE082A3EEE8D0A30EEAC3A20EED7
:100DD000080A62EE030A41EEC00A61EEA21A21EE91
:100DE000000A41EE431A02EE620A94ED051A9FEDE5
:100DF0008C3A00EE88CA00EE831A41EE88BA00EE03
:100E0000089A84ED051AD4ED062A3CEE011A41EE4B
:100E1000832AC4ED062A94ED072A7BEEA21A00EE7F
:100E2000032A84ED072A39EE022A00E01DE1D4ED01
:100E3000020AD4ED032A94ED043A20EEC14A94ED5F
:100E4000010A02EEE14A03EE424ADFED763A04EE91
:100E5000230A84ED010A20EE014A02EE824A03EEE3
:100E6000614A44EE230A20EE214AC4ED020A00EE54
:100E7000C24A20EE022A20EE000A00EEA12A03EE6A
:100E8000014A00EEA00A44EE232AC4ED032A02EE32
:100E9000C12A02EEA20A02EE233A84ED043A03EEDE
:100EA000030AFFF700FFD4ED010AF8EE008A20EEF6
:100EB000801A84ED011AD4ED020A21EE081A60EEC0
:100EC000801AC4ED021AD4ED030A61EEA81A60EE8E
:100ED000800AC4ED030A94ED042A22EE000A84ED90
:100EE000040A21EE800A01EE200AFFF7BFFE10EE91
:100EF000100A18F0A3FB9FED4C9B53EC192B18F034
:100F0000DDF817F04FFE686094ED021AD4ED030A85
:100F100021EE280AF7EE008A60EE011A20EE880A18
:100F200040EE601A71EEA80AD4ED041A20EE210AF0
:100F3000D4ED011A61EE881A01EE810A16F048FF1D
:100F400010EE100A18F07AFB53EC192B18F0B6F8D3
:100F500017F028FE286094ED010A20EE081A61EED1
:100F6000000A65E00A67783D25782C67793D257889
:100F70002C677A3D25780A00777269746520746F52
:100F800020656570726F6D20617420307830302D6F
:100F9000307830313A2538782C2538780A0000002E
:100FA00008000020656570726F6D446174615B308C
:100FB0005D3D25782C656570726F6D446174615B71
:100FC000315D3D25780A000025643A6779726F4FDC
:100FD00066667365742E783D25642C6779726F4F51
:100FE00066667365742E793D25642C6779726F4F40
:100FF00066667365742E7A3D25640A006C060020CF
:1010000000000000DB0FC93FDB0FC9BFDF59375FAE
:10101000F1D4C853FB210940000000000080664065
:101020000AD7A33B6F12833A6666666666A64C4093
:1010300094ED020A60EE081A41EE800A94ED030A6C
:1010400021EE800AD4ED041A70EEE80A01EE610A7E
:1010500016F0BEFE10EE100A18F0F0FA53EC192B41
:1010600018F02CF817F09EFDA86001B0BDEC108BB5
:10107000F0BD10B52DED0A8BF0EE439AB0EE62AAEA
:10108000F0EE42AAF0EE61BADFEDFE1A20EE212A60
:101090009FEDFD0A60EEA10AB6EE00CA82EE009A4C
:1010A000C0EE808A61EE210A80EE808AF74CF5EE70
:1010B000C0BAF1EE10FA09D1F5EEC0AAF1EE10FABD
:1010C00004D1B5EEC0AAF1EE10FA65D02BEEAB0A52
:1010D0000AEEAA0A0AEE0A0AFFF7E5FD6BEE802A7D
:1010E0002AEE803A2AEE002A94ED010AB0EE4CBABC
:1010F000D4ED040A10EE00BA94ED021AD4ED033ACE
:1011000061EE201A20EE011A00EEA0BA40EE631A3A
:1011100003EEA01A94ED090A63EE0B0AB5EEC00ABD
:1011200042EE410A22EE212A22EE811A02EECB2A59
:1011300003EE611AF1EE10FA1EDD60EE202AD4ED06
:101140000A1A20EE023A42EEA91AC4ED0A1AD4EDA8
:101150000B2A39EE219A43EE292A20EE013AC4EDFA
:101160000B2A94ED0C0A78EEA28A03EE290A84ED8C
:101170000C0A38EE008A07E01FED5F0A84ED0A0AC8
:1011800084ED0B0A84ED0C0A94ED080A00EE209A17
:1011900040EE028A00EE018A29EE8C1A94ED022AB2
:1011A000D4ED031A94ED043A21EE090A61EE280AFF
:1011B00021EE081AD4ED012A62EE403A41EEE03AFF
:1011C00043EE413A73EEA24A62EE803AC4ED014A20
:1011D00041EE813A43EE603A33EE824A62EEA03A43
:1011E00084ED024A42EE413A22EE811A02EE201AC2
:1011F00043EE003A01EEC01A24EEA40A73EEA13ABF
:1012000004EE040A71EE030AC4ED033AC4ED040AC5
:1012100003EEA30A00EEA00AFFF745FDD4ED010A94
:1012200060EE800AC4ED010AD4ED020A60EE800A85
:10123000C4ED020AD4ED030A60EE800AC4ED030A8D
:10124000D4ED040A20EE800A84ED040ABDEC0A8B7A
:1012500010BD70B58D4BB0EE001A2DED0A8B064611
:1012600014460D4693ED020A93ED049AD3ED010A5C
:10127000D3ED038A60EE091A20EEA08A60EE819A0F
:1012800020EE01CA40EEE81A00EE408A61EE81BA13
:1012900060EE801A69EEA00A08EEE88A48EE891A24
:1012A0004CEE000AB7EE000A09EE098A21EE81BA77
:1012B00030EEC00A10EE100A18F0C0F92CEE280A21
:1012C00041EC1A0B09EEC90A10EE100A18F0B6F933
:1012D00041EC100BB0EE4A1AF0EE6A1A16F080FCE0
:1012E0001FEDB39B51EC100B53EC192B17F0E6FEDE
:1012F0009FED67CB53EC1C2B17F02EFD17F052FC23
:101300002BEE0B0A206008EE080A10EE100A18F007
:1013100095F941EC100B16F05BFFB0EE40AAF0EE31
:1013200060AA1BEE900A18F089F953EC1A2B17F0FB
:1013300013FD41EC100B16F0E3FA53EC192B51ECB2
:10134000100B17F0BBFE9FED541B53EC112B17F045
:1013500003FD17F027FC2BEEAB0A286008EE080A05
:1013600010EE100A18F06AF941EC100B16F030FF7D
:10137000B0EE408AF0EE608A1BEE100A18F05EF9BB
:1013800053EC182B17F0E8FC41EC100B16F0B8FAF0
:1013900053EC192B51EC100B17F090FE53EC1C2B57
:1013A00017F0DAFC17F0FEFB3060BDEC0A8B70BD65
:1013B0003648B0EE004AD0ED022A90ED042A90EDB6
:1013C000013AD0ED031A62EE823A63EE224A43EE0E
:1013D000613A23EE033A41EE824A02EEE23A63EECC
:1013E000843A24EE844A20EE230A01EEE13A00EE2C
:1013F000840AF7EE000A02EE023A01EE030A30EE2A
:10140000600A7047F0B5214C1D462DED108B8BB056
:10141000D4ED011A91ED00FAD1ED01EA91ED029AB5
:1014200090E8C20021EEA10AD2ED00CAD2ED019AE5
:1014300092ED02CA8DED070A94ED021A21EE810A9F
:1014400021EE01DA8DED020AD4ED030A21EEA00AA5
:1014500060EEA08A8DED030A94ED040A21EE80EA85
:1014600061EE201A61EE00DA60EE800A20EE008A5A
:101470002FEE2E0ACDED051ACDED010A20EE090A58
:101480000EE00000DB0F494000003443080000205C
:1014900000000060FB21094000000060FB2109C042
:1014A000B5EEC00AF1EE10FA7DD0084618F0C6F885
:1014B0009FEDFEAB53EC1A2B17F000FE9FEDFDBB2A
:1014C00053EC1B2B17F048FC17F06CFB00EE100AD6
:1014D00030468DED0A0A18F0B1F853EC1A2B17F0CC
:1014E000EDFD53EC1B2B17F037FC17F05BFB00EE08
:1014F000100A38468DED090A18F0A0F853EC1A2BA3
:1015000017F0DCFD53EC1B2B17F026FC17F04AFB01
:1015100000EE100A8DED080A2FEE0F0A0EEEAE0A4D
:1015200009EE090AFFF7BFFB6FEE00FA2EEE80FA14
:1015300069EE00EA2CEEAC0A09EEA90A0CEE0C0AE0
:10154000FFF7B1FB6CEE800A29EE809A2CEE000AC0
:10155000CDED040AF0EE000A20EE200A8DED000A1F
:10156000DDED030A7DEEA00A20EE200A10EE100A3F
:1015700018F064F8B0EE000A41EC1A0B29EE000AEC
:101580008DED060ADDED050A70EECE0A20EE200A8A
:1015900010EE100A18F052F841EC190B18EE100A70
:1015A00018F04CF800E0B0E141EC1B0B18EE900A8B
:1015B00018F044F89FEDC1CB53EC1C2B17F07CFEC8
:1015C00053EC1B2B17F050FFDDED040AB0EE000AC0
:1015D00041EC1B0B20EE800A8DED040A10EE100A80
:1015E00018F02CF853EC1B2B17F068FD53EC192B5B
:1015F00017F00AFB53EC1A2B17F006FB17F0D2FA80
:101600009DEC030A0BEE100A70EEC10A20EE200AD0
:1016100010EE100A18F012F841EC1A0B18EE100A2E
:1016200018F00CF841EC190B1DEE100A18F006F832
:1016300053EC1C2B17F040FE53EC192B17F014FF42
:101640009DED060A41EC190B10EE100A17F0F6FF9B
:1016500053EC192B17F032FDDDED050A9DED040A60
:1016600041EC190B70EE8E0A20EE200A10EE100AE3
:1016700017F0E4FF53EC192B17F0C6FA53EC1A2BB2
:1016800017F0C2FA17F08EFA9DED030A09EE100A60
:101690007DEEC09A2BEE0B0A09EE090A10EE100A35
:1016A00017F0CCFF41EC100B16F092FD9DED020AF5
:1016B000DDED010AB0EE009AD4ED052A30EE200AE5
:1016C00029EE89AA60EE099A9DED070A6EEE8A0A54
:1016D00030EE4D0A30EE680A30EE088A2FEEA90A85
:1016E0002FEE081A4FEEC80A0FEE4A0A0EEEE91A5C
:1016F0009FED743A41EE032AC4ED052AD4ED061A93
:1017000040EE831AC4ED061A94ED072A00EE032A70
:1017100084ED072A9DED0A3A01EE093A33EE221ACA
:10172000DDED092A94ED043A40EE892ADDED080A40
:1017300040EE090A94ED010A72EEA11AD4ED032AD3
:1017400030EE822AD4ED020A20EEC14A02EEE14ACE
:1017500003EE424ADFED5C3A04EE230A84ED010A0F
:1017600020EE014A02EE824A03EE614A44EE230A69
:1017700020EE214AC4ED020A00EEC24A20EE022AFF
:1017800020EE000A00EEA12A03EE014A00EEA00AB4
:1017900044EE232AC4ED032A02EEC12A02EEA20A75
:1017A00002EE233A84ED043A03EE030AFFF77BFAD4
:1017B000D4ED010AF8EE009A60EE800AC4ED010A49
:1017C00094ED021A60EE890A21EE001A84ED021AE5
:1017D000D4ED031A21EE291A61EE801AC4ED031A22
:1017E00094ED042A22EE000A84ED040A21EE000A98
:1017F00000EEA10AFFF73AFA10EE100A17F01EFFEA
:101800009FED328B53EC182B17F058FC17F0CAF9E8
:10181000686094ED02BA2BEE290AF7EE009A60EEAA
:101820000B0A94ED030A60EE09BA4BEEC00A30EEE3
:10183000A90A10EE100A17F001FF94ED040AD4ED86
:10184000010A41EC1A0B2BEE800A60EE890A00EEC9
:101850008B0A10EE100A17F0F1FE41EC100BB0EEFF
:101860004A1AF0EE6A1A16F0BBF953EC182B51EC39
:10187000100B17F023FC17F095F9286094ED010A7E
:1018800020EE09AA6AEE000A94ED020A60EE09AAA7
:101890004AEE800A30EEE90A10EE100A17F0CEFE8A
:1018A00041EC190B94ED030A14E00000F1D4C85385
:1018B000FB2109400000000000806640000000009D
:1018C0000000E03F0AD7A33B6F12833A6666666664
:1018D00066A64C402AEE800AD4ED040A0AEE600A9D
:1018E00010EE100A17F0AAFE41EC100BB0EE491AE8
:1018F000F0EE691A16F074F953EC182B51EC100B3A
:1019000017F0DCFB17F04EF9A8600BB0BDEC108BA4
:10191000F0BD31B505462DED0A0B2DED108B8CB0C9
:10192000F0EE448AB0EE639AF0EE629AB0EE42AA0C
:10193000F0EE61FAB0EE41DAF0EE60DAB0EE40EAD5
:10194000FE4CB0EE002A94ED011A61EE021A21EE6F
:1019500001FACDED071AD4ED020A94ED030A94EDD5
:10196000048A60EE82CA60EE02BA28EE022A61EEB4
:10197000801A60EE00AA8DED062ACDED0B1A6BEEF3
:10198000881A20EEA0BA60EE88EACDED021A61EE68
:10199000201A28EE08CACDED001A61EE001A21EED9
:1019A000081ACDED031A8DED051A20EE801A20EEEF
:1019B000080A8DED041A8DED010A2FEEAF0A0AEE2A
:1019C0000A0A09EEA90A10EE100A17F037FE41ECD8
:1019D000100B16F0FDFB51EC100B17F0E3F800EEC6
:1019E000900AF5EEC00AF1EE10FA7DD0B7EE001ABB
:1019F00081EE200A6FEE800ACDED1F0A6AEE000A22
:101A000029EE800ACDED200A8DED210A9DED220AF6
:101A100020EE000A09EE090A08EEA80A10EE100AE4
:101A200017F00CFE41EC100B16F0D2FB51EC100B32
:101A300017F0B8F800EE900AF5EEC00AF1EE10FAD1
:101A400052D0F7EE00FAB0EE00AA8FEEA00ADDED5C
:101A5000220A60EE809A29EE009A68EE808A94ED60
:101A6000020A69EE8F1A20EE0A0A60EE292A20EE99
:101A7000281ACDED0A2A60EE092ACDED092A94ED47
:101A8000032A22EE0A0A60EE292A2CEE890ACDEDFD
:101A9000082ADDED092AD4ED040A42EEC81ADDED6C
:101AA0000A2A41EE201A49EE8B1A40EE201A2CEE3B
:101AB000A80A40EE081A22EE880ADDED082A09EE8F
:101AC0000F0A49EEEA1A01EE420A49EECC1A02EE7A
:101AD000A00A6BEEA80A09EE4B0A09EE2A0A00EEEC
:101AE000880A09EE4C0A00E0F0E161EEA10A40EE3E
:101AF000000A10EE900A17F0A1FD41EC100B16F051
:101B000067FB51EC100B17F04DF8DDED092AD4ED11
:101B1000031A94ED041A2BEE892A22EEA10ADDEDB8
:101B20000A2A9DED1F3A00EE900A02EEC10ADDED91
:101B3000082ADDED033A9DED057A20EE8A4A7EEE15
:101B4000E33A08EE8F0AB6EE00FA02EE880ADDEDFF
:101B5000002A08EECB0A02EE080A9DED022A02EEE8
:101B60008A2ADDED202A08EEEA0A32EE622ADDED4D
:101B70000B2A08EE8C0A5EEE8A2A62EE2C6A20EEB0
:101B8000215A60EE015A72EEC32A3FEE6A3AB0EE75
:101B9000456A60EE0A4A4BEEE26A33EE4C3A00EEDA
:101BA000C86A23EE203A00EE233ADDED043A73EEE4
:101BB000C73A9DEC027A33EE693A63EEA03A45EEFD
:101BC000C36A37EE277ADDED217A40EE073A3FEE21
:101BD0004B7A37EE6A7A73EEC93A46EE236A9DED88
:101BE000036A36EE2E6A26EE206A00EE076A20EEC1
:101BF000817A36EE686AF0EE668ADDED066A47EEB7
:101C0000068A22EEA69ADDED076A06EE829AF0EECB
:101C10006F6A4BEE4A6A4AEECA6AF1EE00AA76EEA5
:101C2000E77A61EEAA6A06EEE79A60EE086A06EEC7
:101C3000839AD4ED026A04EE485A00EE267A40EE0A
:101C4000E65A07EE239A20EE887A04EEE17A60EEF7
:101C5000A11A07EE069A9DED067A62EE079A9DEDAF
:101C6000077A47EE629A21EE2A7A62EEACAA47EE34
:101C7000679A24EE417A4BEE82AA00EE667A45EE30
:101C800003AA47EE039AB0EE617A00EE087A20EEDE
:101C9000A60A45EEA3AA04EEC10A47EE239A41EE36
:101CA00086AA40EE069A28EEA80A09EE090A09EE6D
:101CB000A90A0AEEAA0A10EE100A17F0BFFC41ECBE
:101CC000100B16F085FA51EC100B16F06BFF00EEBE
:101CD000900A8FEEA00AD4ED030A60EECE1A28EE29
:101CE000801A69EE002A29EE804A6AEE804A94ED55
:101CF000040A40EE6D1A48EE4D1A21EE8F3AD4EDEB
:101D0000141A01EEC13A94ED021A21EE0E2A00EEE9
:101D10000D2A08EE6D2A22EE0F2A01EEE22A61EE6C
:101D20002D2A40EECD2A48EE0E2A62EE8F3A61EE61
:101D30000D2A41EEC43A40EEAD2A01E00800002031
:101D400040EE4E2A62EE8F2A41EEE42ADFEDFE1AC3
:101D500003EE211A42EE210A03EEA10A02EEA18A45
:101D600084ED021A21EE011AC4ED030A84ED040A7F
:101D700000EEA01A00EE001A08EE081A11EE100A82
:101D800017F05CFC41EC100B16F022FA51EC100B32
:101D900016F008FF00EE900AEC48F8EE008A8FEE8D
:101DA000A00AD4ED020A20EE801A60EE8A0A80EDC5
:101DB000001AD4ED031A21EE801A80ED011A94ED79
:101DC000041A21EE002A28EE000A80ED022A80ED96
:101DD000030A21EEA80A20EE080A00EE810AFEF7A7
:101DE00045FF10EE100A17F029FC9FEDD9BB53EC0C
:101DF0001B2B17F063F916F0D5FE6860D4ED03AA2B
:101E00002AEEA80A60EE2A0A94ED040A20EE0ACA15
:101E10004CEE400A30EEAF0A10EE100A17F00EFC3E
:101E2000D4ED020A2CEE080A41EC190B60EE8A0A86
:101E300000EEAA0A10EE100A17F000FC41EC100B9D
:101E4000B0EE491AF0EE691A15F0CAFE53EC1B2BDE
:101E500051EC100B17F032F916F0A4FE286094ED47
:101E6000020A94ED048A60EE280A20EE800A68EEE9
:101E70000A0A00EEC80A30EE2F0A10EE100A17F018
:101E8000DDFB94ED030AD4ED010A41EC190B20EEC1
:101E90000A0A60EE8A0A20EE080A00EEC80A10EE6E
:101EA000100A17F0CBFB41EC100BB0EE491AF0EE24
:101EB000691A15F095FE9FEDA81B51EC100B53EC21
:101EC000112B17F0FBF816F06DFEA8600CB0BDECFE
:101ED000108B0BB030BD31B5A14C05462DED0A0B72
:101EE00010EE100A2DED108BB0EE42FA8CB0F0EE31
:101EF00061FAF0EE62DAB0EE44EAF0EE63EA94EDF5
:101F0000012A62EE020ACDED040AD4ED021A94ED24
:101F1000031AD4ED040A22EE21DA62EE01CA22EE9F
:101F2000202A61EE812A21EEA19A8DED022ACDEDC3
:101F3000012A21EEA0CA21EE018A61EE209A60EE0C
:101F4000A08A17F07BFB9FED87AB53EC1A2B17F0A1
:101F5000B5F89FED86BB53EC1B2B16F0FDFE16F07B
:101F600021FE00EE100A8DED1C0A9DED1D0A10EEFB
:101F7000100A17F063FB53EC1A2B17F09FF853EC81
:101F80001B2B16F0E9FE16F00DFE00EE100A8DED8B
:101F90001D0A9DED1E0A10EE100A17F04FFB53ECC0
:101FA0001A2B17F08BF853EC1B2B16F0D5FE16F0FE
:101FB000F9FD00EE100A8DED1E0A2FEEAF0A0FEEAE
:101FC0000F0A0DEEAD0A10EE100A17F037FB41ECC8
:101FD000100B16F0FDF851EC100B16F0E3FD00EEBF
:101FE000100ACFEE800ACDED1F0ACFEE000ACDED2C
:101FF000200ACDEE800ACDED210A9DED220A20EEC9
:10200000000A0EEEAE0A0EEE0E0A10EE100A17F0DF
:1020100015FB41EC100B16F0DBF851EC100B16F031
:10202000C1FD00EE100ADDED220A8EEE00BAC0EE10
:1020300080DA7CEE2C0ACEEE80BAB0EE000A2BEEEF
:10204000000A8DED090A8DED0A0A20EE200A10EE35
:10205000100A17F0F3FAB0EE000A41EC1F0B2BEE5A
:10206000800A8DED070A8DED080A9DED012ADDED50
:10207000022A72EE620ACDED060A20EE200A10EE68
:10208000100A17F0DBFA41EC1E0B18EE900A17F05D
:10209000D5FA41EC1A0B18EE100A17F0CFFA9FEDA3
:1020A000351B53EC112B17F007F953EC1A2B17F0D3
:1020B000DBF9B0EE000A41EC1A0B2DEE800A8DED33
:1020C000050A8DED000A10EE100A17F0B7FA53EC6E
:1020D0001A2B16F0F3FF53EC1E2B16F095FD53EC64
:1020E0001F2B16F091FD16F05DFD00EE100A79EE43
:1020F000CD0A8DED0B0A9DED0A0A20EE200A10EEA6
:10210000100A17F09BFA41EC1E0B18EE900A17F01C
:1021100095FA41EC1A0B19EE100A17F08FFA9FEDA1
:10212000151B53EC112B17F0C7F853EC1A2B17F0B3
:102130009BF99DED080A41EC1A0B10EE100A17F0FE
:102140007DFA53EC1A2B19E06F12033BB80C0020F8
:102150006666666666A64C406666666666A64CC09F
:10216000080000206E861BF0F921094000000000E5
:1021700000806640000000000000E03F16F09EFF77
:10218000DDED012A9DED022A9DED000A41EC1A0BBE
:1021900072EE820A20EE200A10EE100A17F04EFAB4
:1021A00053EC1A2B16F030FD53EC1E2B16F02CFDC1
:1021B00016F0F8FC00EE100A18EE100A8DED000A79
:1021C00017F03CFA41EC1E0B19EE100A17F036FA24
:1021D0001FED18AB53EC1A2B17F06EF853EC1E2BB7
:1021E00017F042F99DED090A41EC1F0BB0EE00EA31
:1021F00010EE100A17F022FA53EC1F2B16F05EFFB8
:102200003CEE6C0ADDED050A39EE8D1A8DED030A00
:1022100020EE800ADDED070A41EC1F0B00EE810A7B
:1022200010EE100A17F00AFA53EC1F2B16F0ECFC14
:1022300016F0B8FC9DED0B0ADDED000A0EEE900ADB
:1022400020EE000A00EEA00A10EE100A17F0F6F9D0
:1022500041EC100B15F0BCFF51EC100B16F0A2FC7A
:1022600000EE100A8DED080A9DED030A20EE0E1A0D
:102270003DEE290A2EEE8EDA8DED021A8DED070A5B
:1022800020EE0E1A8DED011A9DED040A30EE490A7A
:1022900030EE480A30EE281A8DED001A9DED030A43
:1022A0002DEE000A10EE100A17F0C8F941EC110BE0
:1022B00018EE900A8DED041B17F0C0F941EC1F0BCE
:1022C00018EE100A17F0BAF953EC1A2B16F0F4FFB7
:1022D00053EC1F2B17F0C8F89DED080A41EC1F0BBB
:1022E00060EE0E9A19EE900A17F0A8F953EC1F2B26
:1022F00016F0E4FE9DED041B53EC112B16F084FC4C
:1023000016F050FC9DED060A0FEE100A18EE100AAA
:1023100069EE80EA9DED070A4DEE00EA17F08EF9AE
:1023200041EC180B19EE100A17F088F953EC1A2B30
:1023300016F0C2FF53EC182B17F096F841EC180B6F
:102340001DEE100A17F07AF953EC182B16F0B6FEB2
:102350003CEE8C0A41EC180B29EE800A10EE100AB4
:1023600017F06CF953EC182B16F04EFC16F01AFC13
:10237000DDED200A9DED001ADDED211A00EE100AB8
:1023800060EE810A9DED011A9DED1F2A41EEC10A02
:102390002BEE801A0BEE6E1A70EE810A9DED021A7A
:1023A00061EE811A9DED001A42EE411A2BEE0F1AD2
:1023B0000DEEC01A31EE810A9DED011A62EE011A8E
:1023C0009DED202A9DED021A42EE411A2DEEAE1A25
:1023D00094ED052A0BEECF1A31EE811A9FEDFE3AED
:1023E00000EE832A84ED052AD4ED061A40EE031A86
:1023F000C4ED061AD4ED072A41EE032AC4ED072ADC
:102400009DED1C3A00EE8E3ADDED1D0A40EE0E0AFF
:102410009DED1E0A33EE022A94ED043A01EE0E0AF7
:1024200070EEA11AD4ED010A30EE221A94ED020AE0
:10243000D4ED032A20EE424A02EEE14A03EE414A7D
:10244000DFEDE63A44EE230AC4ED010A20EE824AAB
:1024500002EE814A03EE614A04EE230A20EEA14A0D
:1024600084ED020A00EE414A20EE811A60EEA00AD5
:1024700000EE211A03EE024A40EE000A44EE232A3F
:10248000C4ED032A02EEC21A42EEA20A01EE233A7A
:1024900084ED043A43EE030A10EE900A17F0CEF8EA
:1024A00041EC100B15F094FE51EC100B16F07AFB7A
:1024B00000EE100AD4ED010AB8EE00AA80EE802AE0
:1024C00084ED012AD4ED020A80EE801A84ED021A0E
:1024D000D4ED031AC1EE800AC4ED030AD4ED042A38
:1024E000C2EE801A21EE0A0A22EE0E1AC4ED041A78
:1024F00020EE210A01EE200AFEF7B8FB10EE100ACA
:1025000017F09CF81FEDEE9B53EC192B16F0D6FD3F
:1025100016F048FB686094ED02BAF7EE00AA2BEEC5
:102520000A0A60EE0B0A94ED030A60EE0EBA4BEE57
:10253000C00A30EEAA0A10EE100A17F07FF894EDE8
:10254000040AD4ED010A41EC180B2BEE800A60EE70
:102550008E0A00EE8B0A10EE100A17F06FF841ECAD
:10256000100BB0EE481AF0EE681A15F039FB53EC78
:10257000192B51EC100B16F0A1FD16F013FB28607F
:1025800094ED029AD4ED049A29EE0A0A69EE8E0AB5
:1025900020EE090A00EEE90A30EE2A0A10EE100ACF
:1025A00017F04CF829EE0E0AD4ED030A41EC180B93
:1025B00020EE200AD4ED010A60EE8E0A00EEE90A50
:1025C00010EE100A17F03AF841EC100BB0EE481A72
:1025D000F0EE681A15F004FB9FED811B51EC100B17
:1025E00053EC112B16F06AFD16F0DCFAA8606DE4CE
:1025F0002DE9F0417C4C0D462DED0A8B90E8C20090
:1026000094ED019AD4ED028AD4ED03AA94ED048AE4
:10261000084617F013F89FED75BB53EC1B2B16F013
:102620004DFD9FED74CB53EC1C2B16F095FB16F073
:10263000B9FA09EE900A304617F000F853EC1B2B5C
:1026400016F03CFD53EC1C2B16F086FB16F0AAFA94
:102650000AEE100A384616F0F1FF53EC1B2B16F069
:102660002DFD53EC1C2B16F077FB16F09BFA28EE91
:10267000E91A00EE100A0AEECA1A08EE401ADFED57
:10268000570A01EE209A84ED019A29EE291A0AEEE2
:10269000801A08EE4A1A41EE208A29EE0A1AC4ED81
:1026A000028A08EEC01A29EE000A08EE8A0A08EE2D
:1026B000291A41EE20AAC4ED03AA0AEEE90A00EEA7
:1026C000208A29EE090A08EEA80A84ED048A0AEE97
:1026D000AA0A08EE080AFEF7E6FAD4ED010AB8EEF7
:1026E000009AB0EE00AA60EE800AC4ED010A94EDF3
:1026F000021A60EE8A0A61EE001AC4ED021A94ED25
:10270000031A61EE891A21EE001A84ED031A94ED82
:10271000042A22EE000A84ED040A21EE800A00EE6B
:10272000810A10EE100A16F089FF41EC100B14F02C
:102730009BFE9FED328B51EC100B53EC182B16F0D7
:10274000BDFC16F02FFA686094ED02BAF7EE00AA0D
:102750002BEE090A60EE0B0A94ED030A60EE0ABA4A
:102760004BEEC00A30EEAA0A10EE100A16F066FF11
:1027700094ED040AD4ED010A41EC190B2BEE800A0A
:1027800060EE8A0A00EE8B0A10EE100A16F056FF71
:1027900041EC100BB0EE491AF0EE691A15F020FA70
:1027A00053EC182B51EC100B16F088FC16F0FAF9CC
:1027B000286094ED01BAD4ED02BA2BEE0B0A0BEEB1
:1027C000AB0A50EE0AAA1AEE900A16F037FF41EC57
:1027D000190B94ED030A15E00AD7A33B6F12833A55
:1027E0006666666666A64CC0080000206F1283C04D
:1027F000CA210940000000000080664066666666E7
:1028000066A64C402BEE800AD4ED040A0BEE600A5B
:1028100020EE0A0A10EE100A16F010FF41EC100B21
:10282000B0EE491AF0EE691A15F0DAF953EC182BEC
:1028300051EC100B16F042FC16F0B4F9A860BDEC98
:102840000A8BBDE8F081FEF72DB900002DED028B5B
:102850000024A2B0A14600F0B9FDFDF77EFFFEF70F
:10286000AAF99FEDA10AA14880ED010A80ED020AB4
:1028700080ED030A9FED9E8ADFED9E8A9E4920919E
:1028800001F1040B9C4A2832A2F10C01A1F10C00C9
:10289000FEF754F89948984EDFF85082B0F90010CE
:1028A000083EA1F2DC5100EE101A5D46B0EE683A27
:1028B000B8EEC00A20EE080A8BED000AB0F902104B
:1028C000A1F2DC5100EE101AB8EEC00A20EE080AA0
:1028D0008BED010AB0F9041096ED020AA1F2DC5169
:1028E00000EE901AF8EEE00A00EE880A8BED020A7C
:1028F000C088A0F57A7000EBC00101EB00114FF623
:10290000FF7000EA4101A8F8001006F12400A0F1D0
:102910000C07D0EC031A97EC030AFEF7AAFB311D53
:102920003046209AFEF795FC09F1010000F0FF09FE
:10293000B9F1020F0BD308F10C02D5EC031A111FE9
:10294000081F96EC030A00F06AFE4FF00009D5ED6F
:10295000022AAB46C8ED032A454697EC030A98EDD8
:10296000022AD8ED011A00F0BCFD1FAA1EA91DA85D
:1029700000F0BDFEBDF97C30BDF97820BDF97410C2
:10298000288800F059F8641CA4B2642C35D10024C6
:10299000B246B06816F052FE07468846DAF80400E0
:1029A00016F04CFE05460E46DAF8000016F046FE1C
:1029B00041EC100B8DE8E00153EC102B50A104A862
:1029C00013F0C0F9DA46DBF8080016F037FE0746C8
:1029D0008846DAF8040016F031FE05460E46DAF8AD
:1029E000000016F02BFE41EC100B8DE8E00153ECDB
:1029F000102B49A104A813F0A5F9022009F0ACF8A6
:102A000040E71FB53C484FF47A7304224FF4BD51A0
:102A100034308DE80F000023AFF2CF1244A100F54F
:102A2000BD5008F09BFE002805D104B04248BDE827
:102A3000104008F0FBBE1FBD2DE9F0474F100646C1
:102A40005410A0EB07091D46A9EB0400284400F030
:102A500040F8DFF89880C8F8180009EB0400401B24
:102A600000F037F83744C8F81400381B401B00F05A
:102A700030F8C8F81C003819284400F02AF8C8F8C3
:102A80001000142E03D94EF660218E4204D3002389
:102A90001A461946184618E0C00900EB80004300AA
:102AA000B8F81C00C0F3C81000EB80004200B8F872
:102AB0001400C0F3C81000EB80004100B8F8180003
:102AC000C0F3C81000EB80004000BDE8F04703F001
:102AD0003ABAB0F5803F02DB4FF6FF7002E0002803
:102AE00000DA002080B27047000000007C00002067
:102AF000CDCC4C3D6F12033BD00C00202425002090
:102B0000312D726F6C3D25662C7069743D25662CE5
:102B10007961773D25660A00322D726F6C3D25661E
:102B20002C7069743D25662C7961773D256600001F
:102B3000737461626C650000A424002030B500232A
:102B40001A464C1E04E0855C521C2B44DBB2D2B208
:102B5000A242F8DB014411F8011C99423AD10178F4
:102B6000AA2937D14178AF2934D18178032931D1CD
:102B700001790A0241790A43D749CA808279C37927
:102B800043EA02228A80027A437A43EA02220A80D6
:102B9000827AC37A43EA02224A80027B437B43EA79
:102BA00002220A81827BC37B43EA02224A81027CA1
:102BB000437C43EA02228A81827CC37C43EA02226C
:102BC000CA81027D1302427D13430B82807D40EA5D
:102BD00002224A8230BD18B5AA220A70AA23012215
:102BE0004B708A700022CA70D0ED000A9FEDBB0ABC
:102BF00060EE800AFDEEE00A10EE902AADF80020AB
:102C00009DF801200A719DF800204A71D0ED010A5B
:102C100060EE800AFDEEE00A10EE902AADF800208A
:102C20009DF801208A719DF80020CA71D0ED020A3A
:102C300020EE800ABDEEC00A10EE102AADF800208A
:102C40009DF801200A729DF800204A728289ADF831
:102C500000209DF801208A729DF80020CA72C27C73
:102C60000A73827C4A73427C8A73027CCA7390F92D
:102C70001400102210B1012802D004E0A02000E0CE
:102C8000A12008741122101FC8700023184604E008
:102C90000C5C401C2344DBB2C0B29042F8D38B548E
:102CA000501C18BD18B5AA220A704A7002228A70F8
:102CB0000022CA700288ADF800209DF801200A7138
:102CC0009DF800204A714288ADF800209DF801204F
:102CD0008A719DF80020CA718288ADF800209DF8A5
:102CE00001200A729DF800204A72C288ADF80020C7
:102CF0009DF801208A729DF80020CA720289ADF801
:102D000000209DF801200A739DF800204A73428933
:102D1000ADF800209DF801208A739DF80020CA7349
:102D20008289ADF800209DF801200A749DF80020EA
:102D30004A74C389ADF800309DF801308B749DF85A
:102D40000030CB74008AADF800009DF801000875D2
:102D50009DF80000487512221620CA7000231A46FA
:102D60008C5C521C2344D2B2DBB28242F8D30B54A7
:102D7000401C18BD18B5AA220A704A7005228A7034
:102D80000022CA70D0ED000A9FED540A062360EEBF
:102D9000800AFCEEE00A10EE902AADF800209DF8C3
:102DA00001200A719DF800204A71D0ED010A60EE01
:102DB000800AFCEEE00A10EE902AADF800209DF8A3
:102DC00001208A719DF80020CA71D0ED020A20EE20
:102DD000800ABCEEC00A10EE100AADF800009DF8A3
:102DE000010008729DF8000048720A20CB70002391
:102DF0001A468C5C521C2344D2B2DBB28242F8D316
:102E00000B54401C18BD18B5AA220A704A70F12252
:102E10008A700022CA700288ADF800209DF8012057
:102E20000A719DF800204A714288ADF800209DF893
:102E300001208A719DF80020CA718288ADF80020B7
:102E40009DF801200A729DF800204A72C288ADF8F0
:102E500000209DF801208A729DF80020CA72028924
:102E6000ADF800209DF801200A739DF800204A73F8
:102E70004289ADF800209DF801208A739DF800205A
:102E8000CA738289ADF800209DF801200A749DF86C
:102E900000204A74C389ADF800309DF801308B746E
:102EA0009DF80030CB74008AADF800009DF8010059
:102EB00008759DF80000487512221620CA7000237C
:102EC0001A468C5C521C2344D2B2DBB28242F8D345
:102ED0000B54401C18BD0000242500200000C842EF
:102EE0001CB50822CDE90001AE486946006806F02D
:102EF0009DFE00201CBD1CB5ABA005F059FA06468E
:102F0000032105F0D0FAA74C4FF0FF352B460822DD
:102F10006946206806F076FF0028F7D100220321D9
:102F2000304605F093FB019807F04EFD0746DDE9BA
:102F300000033A46002105F031FB0198C1B2384642
:102F4000FFF7FCFD384607F01AFEDFE71FB597488C
:102F50000A2305224FF480618DE80F000023AFF2B1
:102F6000690293A100F5806008F0F8FB002805D104
:102F700004B09148BDE8104008F058BC1FBD0027C0
:102F800096B03E463D463C46FFF7E0FF0822002350
:102F900011468AA006F0F2FD8249086089A005F07A
:102FA00007FA5FEA000B08D0AFF2CB0105F06CFB2B
:102FB0000321584605F077FA02E084A007F05CFB95
:102FC0008AA005F0F5F95FEA000A03D0012105F0B7
:102FD0006AFA02E087A007F04FFBDFF828827F1C27
:102FE000761C6D1C641CFFB2F6B2EDB2E4B2202078
:102FF00007F0EAFC814654B3B8F80010ADF814109D
:10300000B8F80210ADF81610B8F80400ADF81800C2
:103010007D4800240188ADF81A104188ADF81C10D5
:103020008088ADF81E0079480188ADF820104188ED
:10303000ADF822108088ADF82400494605A8FFF7B6
:10304000E2FE03464A460021584605F0D3FABDB1D8
:103050006F480025494690ED000A8DED0A0A90ED73
:10306000010A8DED0B0A90ED020A0AA88DED0C0AFB
:10307000FFF7B1FD03464A460021584605F0BAFA6B
:10308000022E32D3B8F80010ADF80010B8F80210D4
:10309000ADF80210B8F80400ADF804005E485D49D0
:1030A000002600680A880388D21AADF806204A88EC
:1030B0004388D21AADF8082089888088081AADF8AC
:1030C0000A0056480188ADF80C104188ADF80E1082
:1030D0008088ADF8100049466846FFF7E3FD0346D7
:1030E0004A460021584605F085FA042F3AD30027B6
:1030F000032310AA3946504605F050FA9DED100AF8
:10310000F8EE400A9FED460A20EE801ADFED450AF0
:10311000494613A861EE201AB0EE001A61EE811A3A
:10312000CDED131ADDED111AF8EE611A61EE801A79
:1031300061EEA01A61EE811ACDED141ADDED121ABE
:10314000F8EE611A21EE800A20EE200A20EE010A34
:103150008DED150AFFF70EFE03464A46002158463C
:1031600005F048FA484607F00AFD052008F0F4FC8F
:1031700035E71FB502222C480A2351028DE80F00C3
:103180000023AFF2052229A100F5806008F0E6FADD
:10319000002806D104B00548BDE81040803808F08A
:1031A00045BB1FBD9C0000206C656400B829002051
:1031B0006461746100000000B82D002072665F72C7
:1031C000780000006E72663234000000737069206F
:1031D000646576696365206E72663234206E6F7442
:1031E00020666F756E64210A0000000062617474CD
:1031F00065727900626174206E6F7420666F756EFF
:1032000064210A0062000020740000206800002091
:10321000C80C00205C0000203C0000206E00002054
:1032200000008039CDCC5C4038250020636F6D00F4
:1032300015A005F0BDF80546032105F034F94FF45B
:10324000FA7401220321284605F000FA204608F00E
:1032500083FCF6E71FB50D4814230F224FF480714D
:103260008DE80F000023AFF2370207A100F5807050
:1032700008F074FA002805D104B00548BDE81040F4
:1032800008F0D4BA1FBD00006C656400382E002021
:10329000382F0020DFED492AC0ED012AC0ED022AB7
:1032A000C0ED032AC0ED042A80ED000A9FED440A18
:1032B00080ED0B0A9FED430A00F1140180ED0C0A2A
:1032C00080ED0D2AC1EC030A704729B1D0ED000A48
:1032D00030EEC00A80ED010A90ED030AD0ED010A3C
:1032E00090ED0D1A00EE810A80ED030AD0ED0B1A65
:1032F000B4EEE10AF1EE10FA06DCD0ED0C1AB4EEF1
:10330000E10AF1EE10FA01D2C0ED031A90ED020AC3
:1033100070EEC01A81EE810A80ED040A90ED051A64
:1033200021EE201A80ED081AD0ED061A90ED032A3E
:1033300061EE821AC0ED091A90ED072A31EE211ACA
:1033400022EE000A80ED0A0A31EE000AC0ED020A00
:10335000704780ED0B0A704780ED0C0A70479FEDB7
:10336000170A80ED010A80ED020A80ED030A80ED64
:10337000040A704780ED010A704780ED000A70472B
:1033800090ED000A7047104A43690121934206DA22
:103390008369934203DAC069904200DA002108464B
:1033A000704780ED050A704780ED060A704780ED92
:1033B000070A704780ED0D0A70470000000000000A
:1033C00000409C4500409CC517B7D13810B5CC4C87
:1033D0002DED048B207800287DD1DFEDCA8AB0EE78
:1033E000682A9FEDC98AF0EE481AB0EE481A9FEDA0
:1033F000C79AB0EE480AC648F0EE490AFFF74AFFFE
:10340000C348B0EE682AF0EE481AB0EE481AF0EE63
:10341000490AB0EE480A3830FFF73CFFBC48B0EE2E
:10342000682AF0EE481AB0EE481AF0EE480AB0EEFC
:10343000480A7030FFF72EFF9FEDB69AB448B0EE01
:10344000490AFFF786FFB248B0EE490A3830FFF765
:1034500080FF9FEDB10AAE487030FFF77AFFAC48AD
:10346000B0EE682AF0EE481AB0EE001AF0EE040A48
:10347000B0EE480AA830FFF70DFFA548B0EE682A65
:10348000F0EE481AB0EE081AF1EE040AB0EE480A5F
:10349000E030FFF7FFFEB0EE682AF0EE481AB0EE1B
:1034A000481AF0EE480AB0EE480A9C48FFF7F2FED0
:1034B0009A48B3EE090A7038FFF74BFF9748B3EE0E
:1034C000090A3838FFF745FF9FED950A9348FFF743
:1034D00040FF01202070BDEC048B10BD88480078AF
:1034E000704770B58A482DED088BB0EE40BAF0EE0B
:1034F000629AF0EE42AAB0EE419AB0EE60AAB0EE47
:10350000610AFFF73AFF0121B0EE4B0A8048FFF74E
:10351000DCFE10EE100A4FF047469FED828A824C87
:10352000DFED828AB04202D9B0EE480A12E00121F2
:10353000B0EE4B0A7648FFF7C8FE10EE100AA04224
:1035400002DDB0EE680A05E00121B0EE4B0A7048DA
:10355000FFF7BBFEBDEEC00A694D10EE100AB0EEDB
:103560006A0A68806A483830FFF707FF6848012117
:10357000B0EE4A0A3830FFF7A8FE10EE100AB0424B
:1035800002D9B0EE480A14E061480121B0EE4A0ABF
:103590003830FFF79AFE10EE100AA04202DDB0EEBE
:1035A000680A06E05A480121B0EE4A0A3830FFF7AF
:1035B0008CFEBDEEC00A10EE100AB0EE690AA880BB
:1035C00053487030FFF7D9FE51480121B0EE490A47
:1035D0007030FFF77AFE10EE100AB04202D9B0EE5A
:1035E000480A14E04A480121B0EE490A7030FFF75A
:1035F0006CFE10EE100AA04202DDB0EE680A06E092
:1036000043480121B0EE490A7030FFF75EFEBDEE7F
:10361000C00A10EE100AE880BDEC088B70BD70B5D2
:1036200004462DED068BB0EE409A16460D463B48FB
:10363000F0EE628AF0EE429AB0EE418AB0EE60AAF5
:10364000B0EE610A7038FFF798FE34480121B0EE01
:10365000490A7038FFF739FE304884ED000AB0EEB1
:10366000690A3838FFF789FE2C480121B0EE4A0A72
:103670003838FFF72AFE85ED000A38EEC80A2C49D3
:10368000DFED270A10EE100A884202DD30EE600AF4
:1036900006E010EE100A2749884201D930EE200AD0
:1036A0001E48FFF767FE0021B0EE480A1B48FFF7EF
:1036B0000CFE86ED000ABDEC068B70BD174810B5F8
:1036C0007038FFF74CFE15483838FFF748FE1348AE
:1036D000FFF745FE0E48FFF742FE0D483830FFF772
:1036E0003EFE0B48BDE810407030FFF738BE044B7B
:1036F00010B55C88048098880880D888108010BD38
:10370000A00000206F12033B0000000000008C426C
:10371000B82F00200000C8420000FA43D03000203B
:103720000000B443000000C700FEFF4600FEFF4655
:1037300000003443000034C37CB54FF080750E4662
:10374000696C046C896954F86C0F8847696C60680F
:1037500089698847296A6069896E8847296AE069AA
:10376000896E8847296A206A896E8847217CA07CF7
:103770002A6A0143E07CD26C0143A0689047A17C97
:103780000A230222E06803F07FF9217CE07C082311
:1037900001430222E06803F077F904F034FB0146AC
:1037A00072787068CDE90002AB693278E0685E68D3
:1037B0000023B047A969E0688968884700207CBD7C
:1037C0002DE9F84FD0E90F9700F14405087C8C688B
:1037D0008846C0074FF0807A08D0DAF8202099F8A0
:1037E0000410D9F8000013680022984768784FF059
:1037F000000B082817D8D8E9006511E000210EB1A8
:1038000016F8011BCDF800B0B86F03F03EFF694613
:10381000B86F03F047FF0098C0B20DB105F8010B77
:10382000641EEBD21DE010281BD8D8E9006516E015
:103830004FF6FF710EB136F8021BCDF800B0DAF882
:103840001820B86F12689047DAF81810B86F4A6AF3
:1038500069469047009880B20DB125F8020B641EAE
:10386000E6D298F81000800708D5DAF8202099F8F9
:103870000410D9F8000013680A469847D8F80800E1
:10388000BDE8F88F134608461D4A19460EF002BCE3
:103890002DE9F0411C491B4D1C4C41F86C5F1C4844
:1038A000C1E901041B481022C8600A7420264E7426
:1038B00040228A748022CA74174A4A61174A8A6170
:1038C000174ACA61174A0A6217A20F49FFF7DAFFBF
:1038D0002F06786C816928468847386A2021C26B98
:1038E00020469047064810A208300346046006713F
:1038F000BDE8F04104480EA14C380EF0DDBB0000DD
:10390000A8000020010800F05431002000500040C1
:10391000021C00F000A0004002100100021401008F
:1039200002180100021C01007373693000000000DE
:10393000737369303000000070B516460C460546BA
:1039400000F0E6F9052305F188023021284600F051
:1039500016FA052305F18D022A21284600F00FFAF8
:1039600001222121284600F0F3F9012222212846D4
:1039700000F0EEF91A222421284600F0E9F9324637
:103980002521284600F0E4F920223121284600F0C4
:10399000DFF90F222621284600F0DAF9012C29D080
:1039A000022C2ED0032C34D00E222021284600F0E9
:1039B000CFF9FF22E121284600F0CAF9FF22E221D7
:1039C000284600F0C5F95021284600F0B3F97321CC
:1039D000284600F0AFF901223C21284600F0B8F952
:1039E00006223D21284600F0B3F92846BDE8704084
:1039F00000F097B920223121284600F0A9F90F22C2
:103A000005E020223121284600F0A2F90E222021D3
:103A1000E8E7FF22E121284600F09AF9FF22E2219F
:103A2000284600F095F90F222021C9E770B5144609
:103A30000D46064600F06CF923462A46A82130467A
:103A400000F09DF9304600F06CF9012070BD70B5B2
:103A50000646072100F06EF90546400619D560219B
:103A6000304600F067F9044621280DD2034606F1DE
:103A7000A8026121304600F077F9C6F8D040F2691B
:103A800021463046904704E0FF22E221304600F014
:103A90005FF9E80606D5E80704D0FF22E1213046A9
:103AA00000F056F92A462721304600F051F900204F
:103AB00070BD7CB50546B7A0D0E90010CDE9001077
:103AC000284600F020F905236A463021284600F0F8
:103AD00056F905236A461021284600F045F90024CE
:103AE0006946085DA52803D1641CE4B2052CF8D30F
:103AF00005F1440005F043FA052C01D001207CBDFE
:103B000000207CBD0020704710B5C06E002802D098
:103B100007F08CFE002010BD10B5C06E08B107F094
:103B20005CFF002010BD08B568B900208DF80000CA
:103B300040F23913994A9AA19DA006F09DFD9DF887
:103B400000000028FBD0002008BD2DE9F04700F15F
:103B5000A806807D9846174615464FF0000A800754
:103B600018D09B4800F0CFF8DFF86492002409F1E8
:103B7000440907E0305D05F8010B484605F0FFF900
:103B8000641CE4B24445F5D3504606F0BBFAE81B8A
:103B9000BDE8F0870120FBE710B511461C46DAB2FC
:103BA000FFF744FF01008A4800F1440003D005F00C
:103BB000E6F9204610BD05F0E2F9002010BD85A011
:103BC00006F05AFD8248FFF742FF012007F0C4FFCC
:103BD000F8E72DE9FC477E4C82464FF001080E467F
:103BE00084F86880002204F1440005F00FF86FF0BB
:103BF000050518B17DA006F03FFD7DE0304604F0DC
:103C0000D7FB002874D02064082581498DF8015025
:103C1000002601918DF8006069460EF06BFA7D4F29
:103C2000DFF8F4912767E4E91D956D05686C8169FB
:103C3000384688472A6A21792068D26B9047042148
:103C4000A760C4E90391696C3846896988472A6A84
:103C5000217CE068926B9047AA216176BB22A27614
:103C6000CC23E376267784F81D8021756275A375D1
:103C7000E67584F81880743C14F8681F481C20709E
:103C800066A006F0F9FC14F868090A2836D05048F6
:103C9000FFF70FFF0028EFD165A006F0EDFC5022E2
:103CA00004214B48FFF748FE14210720CDE900010D
:103CB0004FF400730022664966A007F019FEE06623
:103CC0000C202075654860626548A0626548E06226
:103CD000654820636548606365482662A0630B22DF
:103CE00051463B4804F08AFB0020BDE8FC87FFE713
:103CF000314660A006F0C0FC2846F6E764A006F056
:103D0000BBFC0120F1E74FF0FF31443005F088B8EB
:103D10004FF0807290F87810126A406F136800229A
:103D200018474FF0807390F878101B6ACAB2406F42
:103D30001B68184703B583B0012100910A46006C47
:103D400001AB04A90EF077FA9DF8040005B000BDA0
:103D500007B582B0012100910A46006C04AB03A9AB
:103D60000EF0FAF92046F1E70FB581B002A90093F1
:103D70001346006C01220EF05EFA2046E6E70FB50E
:103D800081B002A900931346006C01220EF0E4F901
:103D90002046DBE7A5A5A5A5A50000009E9701008C
:103DA00064657620213D2052545F4E554C4C0000F6
:103DB0002825732920617373657274206661696CAC
:103DC00065642061742025733A2564200A00000090
:103DD000E4310020726620706F6C6C20746872652C
:103DE00061642073746172742E0A0000696E6974D4
:103DF00020776972656C657373206C6F636B206DDF
:103E000075746578206661696C65640A000000005D
:103E100000127A00010800F000500040546865204C
:103E200025642074696D6520636865636B0A000012
:103E300072745F6E726632346C30315F63686563D2
:103E40006B207375636365737366756C2E0A00006F
:103E5000BF3B00007266506F6C6C0000053B0000B9
:103E6000093B0000193B00004B3B0000993B000060
:103E7000273B0000737069206465766963652025BF
:103E800073206E6F7420666F756E6421210A0000C6
:103E90006E726632346C3031206D6F6420636865F9
:103EA000636B2074696D65206F7574210A000000D2
:103EB00030B4604B4FF0807158B1012801D0022816
:103EC0000CD1086A2022114604681846A44630BC6A
:103ED0006047086A102211460468F6E730BC704754
:103EE00030B4544B4FF0807158B101280ED00228E5
:103EF000F4D1086A0022402104681846A44630BC68
:103F00006047086A002210210468F6E7086A002268
:103F100020210468F1E7E1E770B5464D4FF0807469
:103F200070B101281AD002282CD1206A4021C26A1F
:103F3000284690474006206A03681DD500221CE0F1
:103F4000206A1021C26A28469047C006206A03688A
:103F500001D5002200E0102210210FE0206A20216C
:103F6000C26A284690478006206A036801D500226D
:103F700000E02022202101E0402240212846BDE827
:103F80007040184770BD0020704700207047002027
:103F9000704738B515460C4660B900208DF8000012
:103FA0007823254A25A129A006F066FB9DF800008C
:103FB0000028FBD0012C05D0022C07D0032C09D0FF
:103FC000012038BDE8B2FFF78BFF06E0E8B2FFF74B
:103FD0006FFF02E0E8B2FFF79FFF002038BD00202E
:103FE00070470020704770B54FF08074606C816935
:103FF0001E4888470F4D7021284602F0C8FE206AEF
:104000007022114603682846984719480021032268
:10401000017518494162184981621849C1621849FD
:1040200001631849416318498163BDE8704017A1D5
:1040300004F0E4B900600040B897010064657620A0
:10404000213D2052545F4E554C4C000028257329C9
:1040500020617373657274206661696C65642061A8
:10406000742025733A2564200A000000020800F03D
:10407000B8320020873F00008B3F00008F3F0000D8
:10408000DF3F0000E33F0000933F00006C656400E9
:1040900000207047002070470020704708B560B9C5
:1040A00000208DF800002423194A1AA11DA006F053
:1040B000E3FA9DF800000028FBD0002008BD70B591
:1040C0001E461546002404E002F01EF801C5641CDB
:1040D000E4B2B442F8D3601C70BD0020704710B544
:1040E00001F0E0FF174800210322017516494162E3
:1040F000164981621649C162164901631649416336
:1041000016498163BDE8104015A104F077B900009D
:10411000C797010064657620213D2052545F4E55BB
:104120004C4C00002825732920617373657274203C
:104130006661696C65642061742025733A2564208A
:104140000A00000004330020914000009540000068
:1041500099400000BF400000DB4000009D4000008F
:1041600062617474657279002DE9F05F04461F4640
:10417000914688460079DDF828B0DDF834A003F0D8
:1041800097F94FF0807628B1B16C01252079C96884
:10419000884700E00025617A0846491C0A2900D1B9
:1041A0000021227A8A4207D11DB1B16C20790968B9
:1041B00088470020BDE8F09FC0EBC00004EB800002
:1041C00080F80C80C0F810908782A0F816B00B9A87
:1041D00082610C9A8283A0F81EA00E9A02620F9A46
:1041E00042626172E07910B9207903F0D2F91DB111
:1041F000B16C2079096888470120DBE71CB50446CB
:10420000002201B12272207A01280BD002281ED090
:1042100000281BD12269002A18D0606902B0BDE8CD
:1042200010401047B4F80510608903230840A189A5
:10423000221D08436071000AA071FD48CDE9000409
:10424000617A206813F0C3F8022020721CBD22722C
:10425000E0E72DE9FF4114460D46DDE90A21DDE9DD
:104260000C670560447242818181C0E90467037173
:10427000EF4E02238AB101210172411D03908DE8A6
:104280004A00021D01232146284613F08FF800281A
:1042900000D0012004B0BDE8F08103724171090A29
:1042A0008171CDE90060021D03232146284613F0E9
:1042B0008EF8ECE770B504460D46007A617A8842C4
:1042C0001FD04FF080762889F2690028297820686D
:1042D000D36B2AD0002298476868F2690178126887
:1042E00020689047288901280CD0F16920688A6CE1
:1042F00003219047012060812889022800D00120F5
:10430000E07170BD288AF169002820688A6C06D0A7
:1043100003219047288A012805D00520F0E70721CE
:1043200090470A20ECE70420EAE7012298470020A2
:104330006081288AF169012820688A6C06D00B21E7
:104340009047288A022805D00620D9E70721904700
:104350000920D5E70720D3E72DE9F05F4FF08077FC
:104360000446F9690068496B884720684668217AE5
:1043700016F0120FC1EBC10104EB81054FF00A0AE0
:1043800005F10C0509D0E17939B1710603D5F96958
:104390008A6C0421904784F807A04FF009094FF078
:1043A000080B4FF00008E0790B28FCD2DFE800F0A2
:1043B000060B2C3238465A7D8CA8B200294620467E
:1043C000BDE8F05F76E760896989884207D10320FC
:1043D000E0716A69002A44D00521A86957E069683C
:1043E000FA69095C1268206890476089401C608106
:1043F000F96920688A6C0121904728896189401AEF
:1044000001282ED102202BE029462046BDE8F05F8E
:1044100000F0F2B929462046BDE8F05F00F019BA75
:10442000FA6929782068D36B01229847F9692068D6
:104430008A6C07219047A4F80A805EE0FA6929781F
:104440002068D36B01229847F96920688A6C0B2198
:104450009047A4F80A80288A47E0072000E0062059
:10446000E071A7E6F9692068096D88476289E96803
:1044700088546089401C80B26081698A884209D171
:1044800084F807B06A69002AEBD0A8690621BDE864
:10449000F05F1047F96920688A6C09219047288AE3
:1044A0006189401A0228D8D084E6F9692068096D2C
:1044B00088476289E96888546089401C80B26081BD
:1044C000698A8842DCD013E0288A698A401A2882E7
:1044D000A4F80A80288A01280AD0F96920688A6C21
:1044E00009219047288A6189401A0228B7D1B4E788
:1044F000F96920688A6C0521904784F8079059E68D
:10450000F9692068096D88476289E968885484F8E8
:1045100007A048E7D5E90523207A401CC0B22072E5
:104520000A2801D184F808809AB116F0120F03D03E
:10453000F00603D503210AE0002108E0700701D549
:10454000012104E0300701D5022100E004211846D2
:10455000904784F8078016F0120F01D07006A3D49C
:10456000207AC0EBC00004EB80050C351BE72DE979
:10457000F0410E46DDE90617066002714371817154
:104580000021C17101724FF080744172E0691546DB
:1045900001224368394630469847A06C0168284696
:1045A0008847E0690121426F3046BDE8F04110477D
:1045B00010B5C279032A03D0082A08D0002010BD04
:1045C000027AC2EBC20200EB8202116105E0027ABC
:1045D000C2EBC20200EB82029161007902F0D9FFC6
:1045E000012010BD1CB50446002201B12272207AC0
:1045F00001280BD002281FD0002818D1E268002A19
:1046000015D0206902B0BDE8104010476079A17A4A
:1046100002230840E17A221D084360710548CDE974
:104620000004617A206812F0D2FE022020721CBDC4
:10463000FD410000E54500002272DFE72DE9FF4162
:1046400014460D46DDE90A21DDE90C670560447278
:104650008272C9B2C172C0E903670371984B82B11B
:1046600001220272411DCDE90230CDE9001213464C
:10467000021D2146284612F099FE002800D0012094
:1046800008E6022202724171CDE900301346021D94
:104690002146284612F09BFEEFE7052904D0C268A8
:1046A000002A14D000691047816809780171C18817
:1046B000012902D98168497841718168891C81602A
:1046C000C188891EC1800268011D104670E77047CD
:1046D000FEB5154608AA1E460C4692E80A100B9F26
:1046E0004A1C046082605A1EC280C0E903C706717A
:1046F0000978417173490222CDE900210290021D1F
:10470000294620465B1C12F072FE002800D00120D2
:10471000FEBD30B449B10CE042681378547814708F
:10472000426853704268921C42600289531E0381A2
:10473000F2D2C268002A02D0006930BC104730BCF7
:1047400070472DE9FF410DF1280815460C4698E801
:1047500086000D9EC0E900410281C0E903760B701E
:1047600053004268584903900092CDE9013101237A
:104770002946204612F01AFE002800D0012089E5C3
:10478000052904D0C268002A14D000691047816846
:1047900009780171C188012902D98168C9784171FC
:1047A0008168891C8160C188491EC1800268011D21
:1047B0001046FDE67047FEB50DF1200C15460C467F
:1047C0009CE886000B9E04608160C280C0E903768D
:1047D00003714978417102233C490093CDE90110EE
:1047E000012101EB4203021D2946204612F0FFFD84
:1047F000002800D00120FEBD70B50D46044640895A
:104800004989884209D10320E0716A69002A19D0D8
:10481000A869BDE87040052110474FF080766968AF
:10482000F269095C126820689047288AF1690028BB
:1048300020688A6C07D001219047288A012806D079
:104840000520E07170BD052190470A20F9E704209A
:10485000F7E72DE9F04104460D46088949894FF0F4
:104860008076401A28816868F269017812682068A9
:10487000904701276781288901280BD0F1692068BA
:104880008A6C0121904728896189401A012815D036
:10489000E77100E5288AF169002820688A6C07D052
:1048A00001219047288A012806D00520E071F2E412
:1048B000052190470A20F9E70420F7E70220F5E7F1
:1048C000E54500009B4600001347000081470000BB
:1048D0002DE9FF470D0004464FF0000307D0012DDE
:1048E00003D194F83110062901D084F8313094F8BE
:1048F000318001264FF00A094FF06B0CFE4900F1A0
:10490000360704F15802B8F10C0F07D2DFE808F0BF
:10491000060606A9B00917445464769184F831302C
:1049200031E084F858C0CDE90214CDE9007694F85E
:1049300030100123206812F039FD062076E094F84B
:10494000360040280FD1012D0DD084F858C084F8CE
:104950005960CDE9001494F830100223206812F059
:1049600036FD072062E084F858C0CDE90214CDE995
:10497000007694F830100123206812F017FD94F8A7
:104980003100002838D1226D002A35D0606D04B086
:104990002946BDE8F04710476A2084F858002020D7
:1049A00084F85900CDE9001494F8301002232068EF
:1049B00012F00DFD082039E0192084F8580013206A
:1049C00084F85900CDE9001494F8301002232068CF
:1049D00012F0FDFC092029E0672084F8580011201E
:1049E00084F85900CDE9001494F8301002232068AF
:1049F00012F0EDFC84F83190BDE8FF87242084F8A4
:104A000058004D2084F859008C2084F85A00022068
:104A100084F85B00882084F85C00CDE9001494F8E9
:104A200030100523206812F0D2FC0B2084F83100EE
:104A3000E2E7312084F858000C2084F8590084F80B
:104A40005A9084F85B60842084F85C00CDE90014FF
:104A500094F830100523206812F0B9FC84F8316016
:104A6000CAE794F8330084F8320094F8350020E067
:104A700094F85C006B280BD01B2816D01C287FF400
:104A80004DAF94F85D00C0F3C10084F8320045E7F3
:104A900094F85D000006FAD584F8323084F833309B
:104AA00084F8343084F8353038E794F85D00C0F38A
:104AB000C10084F8340031E77CB50446069D0160EE
:104AC000D0B284F83000C4E91435002584F832509F
:104AD00084F8335084F8345084F83550052284F833
:104AE00031206B2284F85820802284F85920824A91
:104AF000CDE900240E4601460223304604F1580257
:104B000012F065FC08B101207CBD84F83150002012
:104B10007CBD001D70477FB50446DDE9080594F8AB
:104B2000316016B1002004B070BDC4E91405022044
:104B300084F8310084F858106F4800920394CDE94E
:104B4000013094F83010012304F15802206812F06B
:104B50002DFC08B10120E6E7002084F83100E1E7F0
:104B60002DE9FF4104461E46DDE90A3094F8315034
:104B70001DB1002004B0BDE8F081C4E91430002567
:104B80008B1950186B2909D86B2B07D910F86B7C3F
:104B90003F0603D584F8335084F835501B2907D8D5
:104BA0001B2B05D910F81B7CC7F3C10784F835709F
:104BB0001C2907D81C2B05D910F81C0CC0F3C10008
:104BC00084F83300032084F831004B48CDE90026F7
:104BD000CDE9020420680B46014694F8302004F128
:104BE0005800FFF775FD08B10120C3E784F8315084
:104BF000BFE77FB51D460B460446DDE9080194F882
:104C000031600EB100208EE7C4E91401042084F85D
:104C100031003948CDE90204CDE9002594F830206F
:104C200004F158002168FFF709FD08B101207AE777
:104C3000002084F83100E5E71FB5044690F8310004
:104C400010B1002004B010BDC4E914120C2084F887
:104C500031003B2084F85800274904F13600162221
:104C600003940090CDE9012194F83010012304F160
:104C70005802206812F09AFB08B10120E2E70020F8
:104C800084F83100DDE710B511B1C48E64BA0C6050
:104C900012B1018F49BA1160002B02D0408F40BA87
:104CA000186010BD30B590F83240144D05EB840407
:104CB00094ED000A51B1C48E64BA24B200EE904A59
:104CC000F8EEE00A60EE800AC1ED000A52B1018FF1
:104CD00049BA09B200EE901AF8EEE00A60EE800AD6
:104CE000C2ED000A002B0FD0408F40BA00B200EE98
:104CF000900AF8EEE00A03E0D1480000DC970100DA
:104D000020EE800A83ED000A30BD10B511B1C48FCA
:104D100064BA0C601AB1B0F8401049BA1160002BA7
:104D200003D0B0F8420040BA186010BD30B590F81A
:104D30003440364D05EB840494ED000A71B190F8CF
:104D40003E4090F83F5005EB042424B200EE904A18
:104D5000F8EEE00A60EE800AC1ED000A72B190F848
:104D6000401090F8414004EB012109B200EE901A86
:104D7000F8EEE00A60EE800AC2ED000A002B0DD0CA
:104D800010F8421F407800EB012000B200EE900ABC
:104D9000F8EEE00A20EE800A83ED000A30BD10B57F
:104DA000443011B1B0F801400C6012B1B0F80310FA
:104DB0001160002B02D0B0F80500186010BD10B5CE
:104DC0009FED130A453049B1B0F9004000EE904A1A
:104DD000F8EEE00A60EE800AC1ED000A4AB1B0F9CF
:104DE000021000EE901AF8EEE00A60EE800AC2EDC2
:104DF000000A002B09D0B0F9040000EE900AF8EE8A
:104E0000E00A20EE800A83ED000A10BDEC97010055
:104E1000B00FA134F8B54FF000040E460500274648
:104E20000BD18DF800702C23874A88A18CA005F047
:104E300023FC9DF800000028FBD0ED6B286803F0F0
:104E40004DF9307900F00F00401F052810D2DFE83F
:104E500000F01B0C09060300286803F042FA44F036
:104E6000600411E044F040040EE044F020040BE044
:104E70008DF800704323744A81A179A005F0FCFBF2
:104E80009DF800000028FBD03079C0F3811078B184
:104E900001282FD0022830D08DF8007052236A4AA2
:104EA00077A16FA005F0E8FB9DF800000028FBD07B
:104EB0003079C0F3011068B1012821D08DF800705D
:104EC0005E23614A6EA166A005F0D6FB9DF8000046
:104ED0000028FBD002F097FF01463268234628687D
:104EE00003F009F9286803F03CF9286803F0ECF8AE
:104EF0000020F8BD44F00204DAE744F00604D7E7E6
:104F000044F00804E6E738B50C4605000CD18DF8EE
:104F100000004D4A6E230D324CA151A005F0ACFBB0
:104F20009DF80020002AFBD0E86B102C06D0112C35
:104F300008D10068502103F0B4F903E00068502163
:104F400003F0ABF9002038BD38B50D4604000CD194
:104F50008DF800003C4A8323243A3CA140A005F090
:104F60008BFB9DF80020002AFBD0E06B29460068EF
:104F700003F068F9012038BD38B504000CD18DF874
:104F80000000314A8D231C3A30A135A005F074FB96
:104F90009DF800100029FBD0E06B0068BDE83840A8
:104FA00003F03BB910B5374C05F084F801212068B7
:104FB00003F07BF9014610F0500F06D0206803F093
:104FC00079F9012130480CF0B0F9BDE8104005F046
:104FD0007CB820F4807020F00F00083020F43C7181
:104FE000402060F3992110B5174B2748143B4FF42C
:104FF000E1320364C0E91121224C244802F035FC5F
:10500000012001F0DAFF40F2014001F0D6FF032158
:105010004FF0402001F057FF1D4802F026FCAFF290
:105020007B01206803F021F9152002F0E9F92068DE
:1050300003F04AF8234640F2031216A112480CF07E
:1050400044F9002010BD00002098010073657269CA
:10505000616C20213D2052545F4E554C4C000000A5
:105060002825732920617373657274206661696CE9
:1050700065642061742025733A2564200A000000CD
:1050800030000000B800002044330020000800F089
:10509000001800F07561727430000000F8B500F07F
:1050A00092FB4FF08075FA4F286A0821C26B384690
:1050B0009047286A08221146036838469847F54EFB
:1050C0000024A869FF21026830469047A869694614
:1050D000426A30469047641C0A2CF2D3286A0821A1
:1050E000C26C38469047F8BD7CB54FF08074606C58
:1050F0008169E9488847606C8169E8488847E848E1
:1051000001F05BFFE74801F058FFE74801F055FF69
:10511000E64801F052FF206ADD4E0D21C26C304698
:105120009047206A0221C26B30469047206A0A23CA
:105130000222456904213046A847206A082302223A
:1051400045690B213046A847606C006E80470146D8
:105150000822D748CDE90002A069CE4E0023456859
:105160001A463046A847A069816830468847FFF74D
:1051700095FFD049012048707CBD70B5CD4D0446E7
:1051800064200E46A87000F035FBFF2803D0FE28EF
:1051900005D0002070BDA8780028F4D1F9E7651C7F
:1051A00000F028FB20706C1C00F024FB2870B61E59
:1051B000F5D100F01FFB00F01DFB012070BD70B5A4
:1051C0000D46044600F027FBFF281CD1284600F0BE
:1051D00002FBFD2D19D00025207800F0FCFA607844
:1051E000A41C00F0F8FA6D1E15F0FF05F4D1FF20A5
:1051F00000F0F1FAFF2000F0EEFA00F0FBFA00F008
:105200001F00052801D0002070BD012070BD70B5C1
:105210000C46054600F0FFFAFF2801D0FF2070BDC4
:10522000284600F0D8FA200E00F0D5FAC4F3074063
:1052300000F0D1FAC4F3072000F0CDFAE0B200F09C
:10524000CAFAFF20402D02D0482D02D002E095205E
:1052500000E0872000F0BFFA4C2D01D100F0CAFA1F
:105260000A2400F0C7FA0106D9D5641E14F0FF0421
:10527000F7D170BDFEB508B10120FEBD8D4F387865
:1052800080077DD4FFF730FFFFF708FF00F093FAA7
:10529000002529464020FFF7BAFF01286AD1642083
:1052A000B8704FF4D5714820FFF7B1FF01280DD039
:1052B00000217720FFF7ABFF01283ED800216920AD
:1052C000FFF7A5FF012838D8022537E0002402AEF9
:1052D00000F090FA3055641CE4B2042CF8D39DF829
:1052E0000A00012846D19DF80B00AA2842D14407A4
:1052F00000217720FFF78BFF012804D82146692081
:10530000FFF785FF10B1B8780028F1D1B87888B3DD
:1053100000217A20FFF77BFF60BB002400F06AFACF
:105320003055641CE4B2042CF8D39DF80800400604
:1053300001D506251EE002251CE00125022D4FF0B7
:10534000000101D0412006E07720FFF760FF01282F
:1053500004D800216920FFF75AFF10B1B87800285F
:10536000ECD1B87828B14FF400715020FFF74FFF0F
:1053700000B100253D7100F026FA00F03BFA00E094
:1053800027E025B3387820F0010038704FF08075A1
:10539000404EA869C16830468847686C006E8047F7
:1053A00044084548844200D90446686C006E804732
:1053B00001460820CDE90040A86900231A46446848
:1053C0003046A047A86981683046884701E0002040
:1053D00078703878FEBD08B10120704735480078F4
:1053E00070472DE9F0411C4616460D4638B934B1D8
:1053F00030480178C90704D00320BDE8F0810420BB
:10540000FBE70079400700D4560200F0D4F94FF4CE
:105410000077012C314604D05220FFF7F8FE58B136
:105420002FE05120FFF7F3FE58BB39462846FFF71F
:10543000A4FE30B3002424E03E4631462846FFF760
:105440009CFE28B1641E05F5007514F0FF04F4D12C
:105450004C2000F0C0F9002000F0BDF9002000F061
:10546000BAF9002000F0B7F9002000F0B4F90020EC
:1054700000F0B1F9002500F0BDF96D1CEDB20A2D68
:10548000F9D300F0A0F900F0B5F9BCB10120B4E700
:105490000070004000B00040031C00F0030800F062
:1054A000010003000104030001080300010C0300D4
:1054B000801A0600BC00002020BCBE0000209CE733
:1054C0002DE9F0411C4616460D4630B92CB1D94F96
:1054D0003878C00703D003208FE704208DE73878A1
:1054E000400701D5022088E73879400700D45602EA
:1054F00000F061F9012C10D03879800707D5002120
:105500007720FFF784FE21465720FFF780FE3146C3
:105510005920FFF77CFE60B11CE031465820FFF7B0
:1055200076FEB8B9FE212846FFF749FE90B1002467
:1055300010E0FC212846FFF742FE28B1641E05F565
:10554000007514F0FF04F4D1FD210020FFF737FEB1
:1055500000B9012400F037F900F04CF90CB101203A
:105560004BE7002049E77FB515460E4610B10420F1
:1055700004B070BD0124AF4A052E04D01078C007D6
:1055800015D00320F4E7AB492878497828B10128E1
:1055900007D0022808D0042481E031B100205070E7
:1055A00003E0FFF7A1FD00E06970002477E000F060
:1055B00002F90B2E51D005DCEEB3012E07D0022EDE
:1055C00068D141E00C2E4BD00D2E63D154E0002168
:1055D0004920FFF71CFE78BB10216846FFF7CDFD80
:1055E00050B39DF800100120B0EB911F09D19DF838
:1055F00008209DF8091000EB0220084400048009EF
:1056000020E09DF805009DF80A1000F00F0000EB67
:10561000D1109DF809109DF8072001F0030100EB5F
:1056200041019DF80800800900EB82009DF80620EA
:1056300002F0030201E00BE02DE000EB8220401CB1
:10564000C91F8840286015E04FF40070288011E0E1
:1056500000F0E1F8FF280DD01DE00021492001E015
:1056600000214A20FFF7D3FDA8B910212846FFF7F3
:1056700084FD80B100240EE000217A20FFF7C7FDF1
:1056800040B9002400F0B6F8641CE4B205F8010B40
:10569000042CF7D3042400F096F800F0ABF8204671
:1056A00066E70020704700207047002070471046D2
:1056B00010B5614A1C46DBB252680A44014600201C
:1056C000FFF78FFE20B15DA004F0D6FF002010BDD3
:1056D000204610BD104610B5574A1C46DBB2526832
:1056E0000A4401460020FFF7EBFE20B159A004F068
:1056F000C3FF002010BD204610BD38B514460D462E
:1057000068B900208DF8000040F2FE23574A58A1E6
:105710005BA004F0B1FF9DF800000028FBD0102D25
:1057200006D13CB14449680160608968A16020608D
:10573000002038BD4FF0FF3038BD70B50020FFF7B6
:1057400099FD08B156A010E04FF4007005F03CF947
:10575000050009D00022014601231046FFF741FE53
:10576000354E002428B10AE052A0BDE8704004F094
:1057700083BF00222946304807F085F808B17460DD
:10578000B460284605F0FBF92B48012140380F2270
:10579000017553494162534981625349C16253497A
:1057A0000163534941635349C0E90E14BDE8704099
:1057B00051A102F023BE4FF080700022006A022146
:1057C00003684E4818474FF080700222006A114665
:1057D00003684A48184738B54FF08075484CAA69A5
:1057E0000146204612689047A8696946426A2046E9
:1057F000904738BD38B54FF08075414CA869FF21FE
:10580000026820469047A8696946426A2046904748
:105810000098C0B238BD10B5064C3220E070FFF7DA
:10582000E9FFFFF7E7FFFF2802D0E1780029F8D170
:1058300010BD0000BC000020D8330020736420633A
:105840006172642072656164206661696C65640AD6
:1058500000000000736420636172642077726974D1
:1058600065206661696C65640A0000003898010073
:1058700064657620213D2052545F4E554C4C00000B
:105880002825732920617373657274206661696CC1
:1058900065642061742025733A2564200A000000A5
:1058A00073646361726420696E6974206661696CF7
:1058B00065640A00616C6C6F63617465207061726D
:1058C000746974696F6E20736563746F722062759A
:1058D00066666572206661696C65640A0000000096
:1058E000A3560000A7560000AB560000AF560000BC
:1058F000D5560000FB560000736430000070004075
:1059000000B000407CB54FF08074206A816EFA4888
:105910008847206AF94D2021C26B28469047206AAB
:10592000816EF7488847206A816EF6488847206A6A
:10593000D021C26C284690470A23022240212846E3
:1059400001F0A2F808230222B021284601F09CF8B9
:1059500002F059FA01460822EB48CDE90002A0699D
:10596000EA4E002345681A463046A847A069816878
:1059700002B03046BDE87040084738B500224FF00D
:1059800080750092AA69E14C014612682046904752
:10599000A8696946426A204690470098C0B238BD5F
:1059A00070B54FF080740646206AD44D002203681B
:1059B0002021284698473046FFF7DFFF0020FFF7F9
:1059C000DCFF0646206A20221146036828469847D5
:1059D000304670BD2DE9F0414FF080740646206AD4
:1059E000C64D0F46002203682021284698473046BE
:1059F000FFF7C3FF06463846FFF7BFFF206A2022A5
:105A000011460368284698473046BDE8F0812DE9E5
:105A1000F0474FF080770446386A1546DFF8DC928D
:105A20000E46002203682021484698472046FFF78B
:105A3000A4FF8046002405E00020FFF79EFF3055BC
:105A4000641CE4B2AC42F7D3386A202211460368E2
:105A5000484698474046BDE8F0872DE9F0474FF0AB
:105A600080770446386A1646DFF890920D46002289
:105A700003682021484698472046FFF77EFF80466E
:105A8000002405E015F8010BFFF777FF641CE4B272
:105A9000B442F7D3386A2022114603684846984733
:105AA0004046D8E770B54FF08074606C81699848C3
:105AB0008847606C816997488847206A8F4D082124
:105AC000C26B28469047206A0421826B2846904783
:105AD000BDE8704016E770B54FF08074874D206ABE
